:080000000C9445010C949001E1
:100008000C94A4010C9400000C9400000C940000C3
:100018000C9400000C9400000C9400000C94000058
:100028000C9400000C94C0010C9400000C94000087
:100038000C9400000C9400000C9400000C94000038
:100048000C9400000C9400000C940000050720603C
:10005800000000000000005F000000070007001417
:100068007F147F14242A7F2A1223130864623649D6
:100078005522500005030000001C224100004122C7
:100088001C00082A1C2A0808083E080800503000EE
:100098000008080808080030300000201008040292
:1000A8003E5149453E00427F400042615149462148
:1000B80041454B311814127F1027454545393C4AB4
:1000C8004949300171090503364949493606494904
:1000D800291E00363600000056360000000814229B
:1000E8004114141414144122140800020151090681
:1000F800324979413E7E1111117E7F494949363E88
:10010800414141227F4141221C7F494949417F09A0
:100118000901013E414151327F0808087F00417FB3
:1001280041002040413F017F081422417F40404068
:10013800407F0204027F7F0408107F3E4141413E18
:100148007F090909063E4151215E7F091929464662
:100158004949493101017F01013F4040403F1F208B
:1001680040201F7F2018207F63140814630304783D
:100178000403615149454300007F414102040810CE
:100188002041417F000004020102044040404040F9
:10019800000102040020545454787F4844443838FD
:1001A80044444420384444487F3854545418087E02
:1001B800090102081454543C7F0804047800447D63
:1001C80040002040443D00007F10284400417F400B
:1001D800007C041804787C080404783844444438C3
:1001E8007C14141408081414187C7C0804040848A7
:1001F80054545420043F4440203C4040207C1C2060
:1002080040201C3C4030403C44281028440C5050AE
:10021800503C4464544C44000836410000007F00C0
:1002280000004136080002010204027F4141417F7B
:10023800000103070F1F3F7FFF00010000000000BF
:100248000000000040002000596F752057696E219A
:10025800203A2900596F75204C6F736521203A2880
:10026800000001002D4E414E00494E4600000A0094
:10027800040042020300BD024C02010008036A02A6
:100288000000F894EE27ECBBF1E0F5BFE5BF8DE088
:10029800A2E0BB27ED938A95E9F780E098E0A0E615
:1002A800ED930197E9F7E6E7F2E0859195910097DC
:1002B80061F0A591B59105901590BF01F0010590E9
:1002C8000D920197E1F7FB01F0CFEFE5EDBFE8E014
:1002D800EEBFC0E6D2E00C94C501E881EA93EB8159
:1002E800EA93A1E00E941F0B0C949304882499249C
:1002F8000E94AA0B74F4F401DE010E94230DEA0F98
:10030800FB1FA4E00E943E0DE8DFF40131964F0187
:10031800EFCFEF96219608950E94AF0BEFEFFFEF16
:100328005F01882499240E94AA0B4CF40E94B60B02
:100338003897FE93EE93F40131964F01F4CF13C032
:100348000E94AF0BE1E0F0E05F01882499240E944D
:10035800AA0B4CF40E94B60B3896FE93EE93F40168
:1003680031964F01F4CFAA24BB24E991EFBFF9914C
:10037800E991B991A9911895EA93ECE0E2BFE99166
:1003880018952697E0E0EABBEBBBE7BBE8BBE4BB0C
:10039800E5BBE1BBE2BBE5E0E3BFECE0E2BFE0E0E8
:1003A800ECBFE1E0E9BFEBB7E06CEBBFEAE0E5BF2B
:1003B800E0E0E4BFE0ECEABFE0E0EA83EB83EC8353
:1003C800ED83E4E5F0E0E883F983DE011FD2789459
:1003D80082D2E3E0F0E0E093C102F093C202E0E0F1
:1003E800F0E0E093C302F093C402882499240E94A9
:1003F800AA0B64F40E94C10BAE0FBF1FE1E0F0E04E
:10040800ED93FC93F40131964F01F1CF88249924A0
:100418000E94AA0B44F40E94C10B0E94C70BF4016E
:1004280031964F01F5CF882499240E94AA0B64F4D1
:100438000E94CF0BAE0FBF1FEEE7F0E0ED93FC93E9
:10044800F40131964F01F1CF882499240E94AA0B18
:1004580044F40E94CF0B0E94C70BF40131964F0160
:10046800F5CF39D2E091BD02F091BE026091BF0292
:100478007091C0020E94390D30DFEDE7F2E0A0E490
:100488000E943E0D33DFE5ECF2E0A0E40E943E0D51
:100498002DDFA091C702B091C8020E94D50BEA17C0
:1004A800FB071CF0E1E0F0E02F01A0910303B091FD
:1004B80004030E94D50BAE17BF071CF0EFEFFFEF48
:1004C8002F01E2E0F0E0CE16DF06FCF48824992440
:1004D8000E94AA0BB4F40E94CF0BEA0FFB1F3296BE
:1004E8000F01DF010E94350DDF01F2010E94210D8D
:1004F800EA0FFB1FD001ED93FC93F40131964F01F5
:10050800E7CFF60131966F0102C0CC24DD240E94AA
:10051800DA0BDE9724F40E94DA0B1297F4F40E94A7
:10052800DF0B19F4E2E0F0E014C0E230A0E0FA07D3
:1005380019F4E1E0F0E00DC0E330A0E0FA0719F4A7
:10054800E4E0F0E006C0E430A0E0FA0731F4E3E0CC
:10055800F0E0E093C102F093C2020E94E70BA837D3
:10056800E0E0BE07D4F10A2C0B2841F00E94EC0B06
:10057800EA0DFB1DE093C302F093C402882499247A
:100588000E94AA0B54F50E94CF0B0E94F10BEA17A8
:10059800FB07F9F40E94DF0B19F4E3E0F0E014C064
:1005A800E230A0E0FA0719F4E4E0F0E00DC0E3302F
:1005B800A0E0FA0719F4E1E0F0E006C0E430A0E0BA
:1005C800FA0731F4E2E0F0E0E093C102F093C202EE
:1005D80004C0F40131964F01D3CF0E94E70B1A975C
:1005E8007CF5882499240E94AA0B54F50E94C10B1B
:1005F8000E94F10BEA17FB07F9F40E94DF0B19F4CC
:10060800E3E0F0E014C0E230A0E0FA0719F4E4E017
:10061800F0E00DC0E330A0E0FA0719F4E1E0F0E003
:1006280006C0E430A0E0FA0731F4E2E0F0E0E0933D
:10063800C102F093C20204C0F40131964F01D3CF36
:100648000E94DF0B61F4E091BD02F091BE02389682
:100658000E94F80B0E94EC0B0E94FD0B2AC0E230AE
:10066800A0E0FA0721F40E94050C389615C0E33083
:10067800A0E0FA0751F40E94050C38970E94F80B85
:100688000E94EC0B0E94FD0B14C0E430A0E0FA07B6
:10069800A1F40E94050C3897E093BD02F093BE02C6
:1006A8000E94DA0B0E94EC0B31960E94210DEA0F92
:1006B800FB1FE093BF02F093C0020E94E70B0E9469
:1006C8006A0D1CF0662477240BC00E94E70BAF3735
:1006D800E0E0BE0724F0E1E0F0E03F0101C0C1CE58
:1006E800FAD0E1E0F0E0E615F70539F4EEE1EA9337
:1006F800EAE0EA93A0E5B2E006C0EEE1EA93EAE0B8
:10070800EA93ACE5B2E00E9405082696FFCF000008
:10071800C09A00000895C098C498C59808951A937F
:10072800F6DF19B3C098E12F19910895AA931A9387
:10073800E0E0EABBC19AC298E981EF5F1E2F10FF83
:1007480002C0C49A01C0C49811FF02C0C59A01C072
:10075800C598E5DFE078E9F718811FC1AA93A98158
:10076800E5DF0E940A0C19C1E0910603EA93E091C3
:100778000503EF73E064AE2FF1DFE0910603EA931F
:10078800E0910703E86BAE2FE9DF0895AA93E981AA
:10079800E0930503E295EF70E695E695E09306038E
:1007A800E881E0930703E0DFF8C0A0910503AF5F9D
:1007B800A0930503A03818F0E0E0E0930503E0916A
:1007C8000503EF7331F4E0910503EA93A091070361
:1007D800DDDF0895AA93A0910603A8DFC29A0E94BC
:1007E8000A0C21960895A0910603A0DFE0E0EABB79
:1007F800C19AC29A94DF0895AA93E981EA93E9819C
:100808000E94130CF0DFB0DFEEDFC7C0BA93AA93E3
:100818001A93B89AB99ABA9ABB9AC39ABC9ABD9ACB
:100828007ADFC398A4E6B0E00E94030DC39A10E0F3
:10083800123040F41A93AFE391DF1A931395A0ECAA
:100848008DDFF6CFE1E0E0936002E0E0E093610243
:10085800E981FA813097A9F0A981BA810E94350D02
:10086800E0936402F093650212960E94350DE093BE
:100878007902F0937A02A981BA8114960E94350D03
:100888000AC0E0E0F0E0E0936402F0936502E093D0
:100898007902F0937A02E0937B02F0937C02E1E024
:1008A800E0936602E0936702E0936802EFEFE0935B
:1008B8006902E1E0E0937002E1E7F2E0FA93EA937B
:1008C800EFEFEA93A8E0B0E00E94290B04D0E1E042
:1008D8001881239608950E94700D00E030E0E091A1
:1008E8006102E03009F00FEF383078F4E0E0EA9385
:1008F800A32F3F5F4BDF10E0A12F1F5FA03820F42C
:10090800A02F0E94190CF8CFEFCFE0E0EA93A0E007
:100918003DDFE0E0EA93A0E0A6D30E94770D24969D
:100928000895AA931A930A93AC81A03818F4AB815E
:10093800A03408F016C0EC81EA93AC815DDF1E2F6D
:1009480013DFEB81E770A1E00E94110D0E2FEA8101
:10095800E03011F0102B03C0E02FE0951E23A12FEB
:1009680039DF1981088125960895AA93A981A038AD
:1009780018F4A881A03410F0E0E00FC0E981EA93F0
:10098800A9813ADF1E2EE881E770A1E00E94110DCF
:10099800E12111F0E1E001C0E0E022960895AA9378
:1009A8001A93ED81EA93AD8127DF1E2FDDDEE98101
:1009B800E73011F0E83039F4EB81EA93AA810E941C
:1009C800440BEB8308C0E33021F4EB81E095EB8323
:1009D80002C0E03021F4EA81E0951E2302C0E23033
:1009E80029F4EA81AB81EA231E2B0EC0E13029F4F9
:1009F800EA81AB81EA231E2707C0E43029F4EA81A3
:100A0800E095AB81EA2B1E23A12F0E94190C1881B7
:100A180026960895AA9323970E946E0DA889A03858
:100A280048F4AF85A03430F4AE85A03019F0AD8518
:100A3800A03009F4C8C1EE85E887A889BB27EE85F0
:100A4800F0E0AE0FBF1FA138E0E0BE0720F0A88994
:100A5800E0E8EA1BEE872D85AF85BB27ED85F0E042
:100A6800AE0FBF1FA134E0E0BE0720F0AF85E0E481
:100A7800EA1BED87A985A63009F05BC0EC85E1305B
:100A880009F4A1C1E33039F4E0917B02F0917C02D2
:100A9800309709F498C10885ED85E695E695E695C1
:100AA8003E2FE22FE77019F4AD852A17E9F0A02F41
:100AB800BB27E32FF0E00E942D0DAA85BB850E947D
:100AC8001D0C269526952695532F5F935F5FE22F81
:100AD800AF91EA1748F0102FE12F1150E03019F0CC
:100AE8000E94220CF9CFF1CFAE850A1711F1EE85DD
:100AF800AA85BB85F0E00E941D0CED85E77009F022
:100B08003F5F20E02F932F5FE32FAF91AE1788F45C
:100B18001E851F931F5FE02FAF91AE1718F40E9438
:100B2800220CF7CFEE85AE81BF81F0E00E941D0C4C
:100B3800E9CFEF85E7703E2FED85E03009F443C13A
:100B4800EA85FB85EE83FF8310E00889303009F0E1
:100B580065C0AD85A83008F45CC0E985E03011F0C7
:100B6800E33009F402C0E73009F402C0E83009F4C0
:100B780002C0E63009F402C0E93009F402C0EA30E4
:100B880021F40A93E8890E94130C1F931F5FEE85D6
:100B9800AF91AE17B8F5A985A63061F424DEE4DD7F
:100BA8000E942F0CFA93EA931EDEAE2F0E948B0B45
:100BB800FCDD27C0E985E93011F450E00EC0EA30C9
:100BC80011F45FEF0AC00E942F0C0E94380C5E2FB0
:100BD800E985E73011F0E83021F40E943E0C5E2FE1
:100BE80006C0E33011F4509502C0E03021F4A52F7F
:100BF8000E94190C06C00E94420CEFEFEA93AD85E3
:100C0800CEDEC3CFEF85E85FEF87ED85E850ED874F
:100C1800D1C05D8520E0E0E0ED877AC0E32FAD85A7
:100C2800AE0FA93020F42D85E0E0ED8703C0E8E0A1
:100C3800E31B2E2F3A93A22F0E94390B4E2FE985E2
:100C4800E630F1F41F931F5FEE85AF91AE17B8F44D
:100C58000E94480CAE2FE32F0E94190D0E944F0CE2
:100C6800E32FA42F0E94190DE095E1215E2B0E942D
:100C78002F0CFA93EA93A52F0E948B0BE3CF2CC07D
:100C8800E93011F450E003C0EA30A9F45FEF0E94A4
:100C98003E0CAE2FE32F0E94110D5E2F1F931F5F96
:100CA800EE85AF91AE1730F40E94420C4A93A0E053
:100CB80076DEF4CF11C01F931F5FEE85AF91AE179C
:100CC80058F40E945A0CAE2FE32F0E94110DEA939C
:100CD8004A93AD8564DEEFCFED85E03009F473C04B
:100CE800AD85A83028F4ED85E21B5E2FE0E003C057
:100CF800532FED85E850ED8710E0EF85E85FEF872B
:100D0800E8E0E31B2E2F0889EA85FB85EE83FF8345
:100D1800E52FF0E0E85CFD4F4491E985E630F1F419
:100D28001F931F5FEE85AF91AE17B8F40E94480C71
:100D3800AE2FE22F0E94110D0E944F0CE22FA42F1C
:100D48000E94110DE095E1215E2B0E942F0CFA9371
:100D5800EA93A52F0E948B0BE3CF2CC0E93011F446
:100D680050E003C0EA30A9F45FEF0E943E0CAE2FBA
:100D7800E22F0E94190D5E2F1F931F5FEE85AF9122
:100D8800AE1730F40E94420C4A93A0E008DEF4CF7C
:100D980011C01F931F5FEE85AF91AE1758F40E94E4
:100DA8005A0CAE2FE22F0E94190DEA934A93AD8593
:100DB800F6DDEFCFE885AA85BB85F0E0EA0FFB1FDB
:100DC800EA87FB87B9CE0E94750D619608950E9447
:100DD800670C24F0E0E0F0E00C94420BA881B981A4
:100DE800A038E0E0BE0724F0EFE7F0E00C94420BF7
:100DF800E881F9810C94420B0E94670C24F0E0E032
:100E0800F0E00C94420BA881B981A034E0E0BE0761
:100E180024F0EFE3F0E00C94420BE881F9810C94A4
:100E2800420BAA93E981EA93E981EA93A0916002CF
:100E380078DD0C94420BBA93AA9323970E946E0C08
:100E48008F01002E012A19F4E0E0F0E05FC00E9453
:100E5800750C0F820E94750C0E820E94750C088614
:100E6800EB85A885EA1718F4E0E0F0E04FC0F80138
:100E78000F5F1F4F5491A885BB27EE27A50FBE1FF4
:100E8800EB85F0E0EA17FB0718F0E0E0F0E03EC081
:100E9800EE81E695E695E6954E2FEE81E77009F02E
:100EA8004F5FEF81E030A1F0A985BA85EC93A88562
:100EB800EB85EA1BF0E0DF01EF81F0E00E942D0DE9
:100EC800DF01E42FF0E00E942D0DE00FF11F1EC09E
:100ED8009801E52FF0E00E0F1F1FA885AF5FA887C8
:100EE800A150EB85AE1760F4F9012F5F3F4FA49135
:100EF800B0E0E42FF0E00E942D0D0E0F1F1FEDCF84
:100F0800F901E491A985BA85EC93F8010E94750D61
:100F18002C960895E0E0E0936202A0916302BB275B
:100F28000E947A0CF0E0AE0FBF1FE0916702F0E07C
:100F3800AE0FBF1F61DFE09363020895AA93219764
:100F48000E946E0C309709F457C0AF81AA3009F49B
:100F58004FC0EF81EA93DE0117966DDFAF0130973E
:100F680019F40E94750D08C3E0916602AE81EA0F7C
:100F78003E2FA0916202BB270E94810C0138E0E05D
:100F88001E0718F0032F1127C5DFE0916202EA93CC
:100F9800E0916302EA93E885EA930E947A0CEA9367
:100FA800E1E0EA935A934A93A7E034DDE0916202C4
:100FB800AE81EA0FEA93E0916302EA93E091660258
:100FC800EA930E947A0C0E94860CE0916202EA93EE
:100FD800A09163020E947A0CEA0FEA933A93E09197
:100FE80067020E94860CE0E8F0E0E017F10721F4C0
:100FF80091DF0E94750DC0C2009362020E94750DB8
:10100800BBC2BA93AA931A93EC81EA93AC812BD012
:10101800E981FA813196E983FA833197E4911E2FA9
:10102800E03019F0A12F8ADFF3CF18810C94370B29
:10103800AA93EA81EA93EA81EA93E0916902AA8194
:10104800EA2319F0E091600202C0E0916102AE2F3C
:1010580068DCE881EE0FE883E03011F4E1E0E88332
:10106800E8810C94890BAA93A981BB27B0DEE09391
:101078006202A881BB27C0DEE09363020C94420B96
:10108800AA932B970E946E0DAC89BB27A0DEEC8B30
:10109800AA89BB279CDEEA8BAB89BB27ADDEEB8B2D
:1010A800A989BB27A9DEE98BEA89E0936202E9896D
:1010B800E0936302E1E0E887E989AB89EA1771F513
:1010C8001C89AA891A1731F41A93EC89EA93A1E0CA
:1010D800AFDFC8C0AA891A1730F4EA89E11B0E2FBE
:1010E80041E050E006C0AA89E12FEA1B0E2F4FEF1E
:1010F8005FEF3B89E0E0EE830E94900C38F41A938E
:101108003A933395AA8594DFEF83F6CFEF81E8878A
:10111800140FE02F0150E03061F7A4C0EA89AC89D0
:10112800EA1739F53B89A9893A1730F4E989E31BAD
:101138002E2FE1E0F0E006C0A989E32FEA1B2E2F4D
:10114800EFEFFFEFED87FE871C89E0E0EE830E945A
:10115800900C30F41A9313950E94980CEF83F7CFF4
:10116800EF81E887ED853E0FE22F2150E03061F7EF
:1011780079C0E0E0EE830E94900C08F073C01C89EF
:101188003B89E1E02E2F0E2FAA89BB27EC89F0E0DE
:10119800AE1BBF0BAD0155232AF40FEFFA010E94D5
:1011A8000D0DAF01FA01EE0FFF1FEF87F88BA9892C
:1011B800BB27EB89F0E0AE1BBF0BAD87BE87AE85C2
:1011C800AA233AF42FEFED85FE850E940D0DED87D9
:1011D800FE87ED85FE85EE0FFF1FEB87FC871A93D0
:1011E8003A93A1E025DFE887E0E0E987EA87AD8563
:1011F800BE854A175B07BCF0100FEB85FC850E9483
:101208009C0CA985BA854A175B072CF4320FAF8569
:10121800B8890E94A30C1A930E94980CE887EA895F
:10122800E11751F718C0320FEF85F8890E949C0C1E
:10123800ED85FE85A985BA85EA17FB072CF4100F02
:10124800AB85BC850E94A30C1A930E94980CE88772
:10125800E989E31741F7EB89EF5FEB8BE989EF5FEA
:10126800E98B89CF0E94750D65960895BA93AA9364
:1012780023970E946E0DED85E887E0916802EF8361
:10128800E0916002EE83AA89BB27EF850E94810C5A
:10129800A989BB27E8890E94AA0CE8890E94B10C99
:1012A80071F0E885E078F1F4AD85BE85EAE5F0E017
:1012B8000E94B90C1CF00E94C20C0CF413C033231A
:1012C80012F00E94C70CAF81A23020F02230E0E07B
:1012D8003E070CF407C00E94CB0C21F40A93A22FFE
:1012E800A1509FDDE885E878E83891F0E885E07856
:1012F800C9F4AD85BE85A25FBE4F0E94D40C3CF0F8
:10130800AD85BE85A25FBE4F0E94D90C0CF40AC001
:101318000E94DE0C38F00E94E50C21F40A93A42FF9
:10132800AF5F7FDDAA89BB27EF85F0E0AE1BBF0B5F
:101338008D0111230AF445C0E885E278E23891F07E
:10134800E885E07811F5AD85BE85A65ABF4F0E94A5
:10135800D40C3CF0AD85BE85A65ABF4F0E94D90C6F
:101368000CF413C0332312F00E94C70CAF81A230D3
:1013780020F02230E0E03E070CF407C00E94CB0CBE
:1013880021F40A93A22FA1504CDDE885E478E438D3
:1013980071F0E885E078A9F4AD85BE85EEE0F1E06E
:1013A8000E94B90C1CF00E94C20C0CF40AC00E94E6
:1013B800DE0C38F00E94E50C21F40A93A42FAF5FED
:1013C80030DDAA89BB27E8890E94810CA989BB273F
:1013D800EF850E94AA0CEF850E94B10C81F0E88588
:1013E800E078F1F4EB85FC85AD85BE85AE17BF07C7
:1013F8002CF0E985FA85EA17FB070CF411C03323B2
:101408007AF00E94C70CAF81A23050F0E02FEE5F57
:101418000E94EE0C29F4E02FEF5FEA93A22F01DD82
:10142800E885E878E83871F0E885E078C1F4AD85BA
:10143800BE85E8E6F1E00E94B90C1CF00E94C20CDF
:101448000CF40DC00E94DE0C50F0E02FEE5F0E94FD
:10145800F60C29F4E02FEF5FEA93A42FE2DCAA89C7
:10146800BB27E889F0E0AE1BBF0B8D0111230AF4FE
:1014780050C0E885E278E23871F0E885E07809F54F
:10148800AD85BE85E4EBF0E00E94B90C1CF00E942B
:10149800C20C0CF416C03323A2F00E94C70CAF8113
:1014A800A23020F00230E0E01E070CF40AC0E02F62
:1014B800E2500E94EE0C29F4E02FE150EA93A22FAB
:1014C800B0DCE885E478E43891F0E885E07809F55F
:1014D800AD85BE85AC54BF4F0E94D40C3CF0AD85A1
:1014E800BE85AC54BF4F0E94D90C0CF412C00E94A8
:1014F800DE0C20F00230E0E01E070CF40AC0E02FFA
:10150800E2500E94F60C29F4E02FE150EA93A42F50
:1015180088DC0E94750D63960895AA930E94700D49
:10152800AF81BB27ED81F0E0AE1BBF0B50DC1E2F57
:10153800AF81BB27ED81F0E0AE0FBF1F48DC0E2F57
:10154800AE81BB27EC81F0E0AE1BBF0B55DC3E2F14
:10155800AE81BB27EC81F0E0AE0FBF1F4DDC2E2F14
:101568001A933A930A93A32F8BDD1A932A930A931B
:10157800A22F86DD0E94770D28960895AA930E94CF
:101588006E0DA985A03818F4A885A03408F04FC0BE
:1015980050916802E52F5150E03009F448C0EF81BE
:1015A800E03009F444C0EF81E150EF83EF5F0E2F84
:1015B800F0E0A5E0B0E0AE1BBF0BFD010E94230DDB
:1015C8000E94280D9F0110E0AE81A03459F40E94BA
:1015D800FE0C1A93A02FA1DF0E94FE0C0A93A12FE4
:1015E8009CDF0FC00E94FE0C1A930A93EA85F0E074
:1015F800FA93EA93E0E0F0E0FA93EA93A0E0B0E02F
:1016080035DE1F5F33231AF4E12FF0E008C00150E4
:10161800A12FBB27E02FF0E0AE1BBF0BFD01EE0FA3
:10162800FF1F31962E0F3F1F011770F6B3CF0E9490
:10163800750D2A960895AA93EA81EA93EA81EA93B6
:10164800EA81EA93AFE89ADF60C0BA93AA93B981B6
:10165800A881109631F0FC81EB816A816193119722
:10166800E9F7EB81FC8125960895AA93E881F0E0DB
:10167800E85CFD4FA491E9810E94110D229608951E
:10168800AA931A93E981E73011F0EA3019F410911E
:10169800600209C0E93019F41091610204C0E83011
:1016A800A1F410917002E0916102E03049F010302D
:1016B80019F0EFEF188129C0EA81E095188125C05B
:1016C800103019F4E0E0188120C0EA8118811DC0AB
:1016D800BA93AA93EA81E13021F4E881F981E4918F
:1016E80014C0E23029F4A881B9810E944D0D0DC0C3
:1016F800E33041F4A881B981E0917902F0917A024E
:10170800099503C0A881B981EC9123960895AA93FD
:10171800EB81E03029F4E881A981BA81EC9314C007
:10172800E23031F4E881A981BA810E94590D0CC0D8
:10173800E33051F4E981FA81FA93EA93AA81E091BE
:101748007B02F0917C02099524960895E0E1F0E08F
:101758008E169F060895AA93BA93EA93FA93EFB761
:10176800EA930895F401ADE7B2E00E94230DAE0FAD
:10177800BF1F1296ED91FD910895F401ADE7B2E017
:101788000E94230D0895AE0FBF1F1296F4017096A4
:10179800ED93FC930895F401A5ECB2E00E94230DAB
:1017A8000895E091BF02F091C0020895A091BF0290
:1017B800B091C0020895E091C102F091C202E130F7
:1017C800A0E0FA070895A091BD02B091BE02089565
:1017D800E091C302F091C4020895AE0FBF1F1296A4
:1017E8000E94350DDF01DDCFE093BD02F093BE020C
:1017F800DDCF31960E94210D0E94460DEA1BFB0B9E
:101808000895E091BD02F091BE020895C198EFEFEE
:10181800EABBE881EBBB0E948B030C948F03E6952F
:10182800E695E695AE2F0C94CA030E94EE030C943D
:10183800D903EA0FFB1FEE83FF830895EC85EA9333
:10184800EF81F8853196EF83F8873197FA93EA9319
:10185800A0E00C948B0BEC85EA93EF81F885319628
:10186800EF83F8873197089566277727DF01CB0143
:101878000C946C0B5A93AA850C94440B0A93039509
:10188800E889EA935A9308950A930395A8890E94D0
:101898000004E42308955E2FEC85EA93AF81B885B0
:1018A800882799270E946C0B1E2E08950A9303958A
:1018B800E889EA93EE85EA93E985FA853196E9871E
:1018C800FA873197D1CFBA93AA93A881B9810E9498
:1018D8006A0D08950E946E0DE0916402F091650210
:1018E8000895F8010F5F1F4F04900895E091640276
:1018F800F09165023196E4910895F0E0EA0FFB1F3C
:101908008F010895EA93E0E0EA93E0E0F0E0FA93CB
:10191800EA93A9E00C940E05AE81AF5FAE83A150A7
:10192800E0916802AE1708953A93AA850C941C08B2
:10193800A985BA85EA0FFB1FE987FA870895E98523
:10194800FA85EA1BFB0BE987FA870895F0E0AE1BDE
:10195800BF0B9D01A989BB270895F0E0EA0FFB1F83
:10196800AF01E885E178E1380895EA1BFB0B0F0128
:10197800DF01EB85FC85AE17BF070895E985FA8579
:10198800E015F10508950A93A22F0C9415070A9300
:10199800A22FA2500E94B904AE2FEE81EA17089533
:1019A800EB85FC85AE17BF070895E985FA85EA1728
:1019B800FB0708950A93A42F0E941507AF81A23050
:1019C80008950A93A42FAE5F0E94B904AE2FEE814A
:1019D800EA170895EA93A22F0E94B904AE2FEE8168
:1019E800EA170895EA93A42F0E94B904AE2FEE8156
:1019F800EA170895E985EA93E985EA930895109628
:101A080039F080ED97E00197F1F7A8951197C9F79C
:101A18000895F195E195F0400895EE230E2EEA2FF2
:101A280019F0EE0F0A94E9F70895EE230E2EEA2F27
:101A380019F0E6950A94E9F70895EE0FFF1FEE0FE7
:101A4800FF1FEE0FFF1F0895F595E795F595E795AC
:101A58000895FA9FF02DEB9FF00DEA9FE02DF10D10
:101A68000895ED91FC91119708957A936A93FA93EA
:101A7800EA930895BB27EA0FFB1F02900A92119779
:101A8800E1F708951B2EBF2FF12D1A2EAE2FE12D51
:101A98000895E199FECFFF93FFB7F894AEBBBFBBA3
:101AA800E09AEDB3FFBFFF910895E19B02C0A895AE
:101AB800FCCF9FB7F894AEBBBFBBE09A8DB3E817D5
:101AC80019F0EDBBE29AE19A9FBF089500240A1627
:101AD8000B0608955A934A933A932A931A930A93B2
:101AE80008955D814C813B812A811981088108957F
:00000001FF
